:060000000A128A11EE2F26
:100D96007E088A007F0882000A128A11CB260A1270
:100DA6008A118000840A04087D0603190034FF0AAC
:100DB6000319FE0ACF2EFC346034DA34F2340034E0
:100DC60000340034003400340034FC346034DA3447
:100DD600F2346634B634BE34E034FE34F634700889
:100DE60071040319F72EF82E272FF501F50A062FA1
:100DF60001300310F00DF10DFF3E031DFC2E0130F6
:100E0600F4007408F507F11F092F0A2FFB2E71084D
:100E16007302031D102F70087202031C132F142F68
:100E26001A2F7008F2027108031CF303F302013053
:100E36000310F10CF00CFF3E031D1B2F0130F502D1
:100E4600031D262F272F0A2F7308F1007208F000C2
:100E56000800F501F601700871040319332F342FC9
:100E66006B2FF701F70A422F01300310F00DF10D39
:100E7600FF3E031D382F0130F4007408F707F11FF9
:100E8600452F462F372F01300310F50DF60DFF3E87
:100E9600031D472F71087302031D532F700872023A
:100EA600031C562F572F5E2F7008F2027108031C81
:100EB600F303F302751401300310F10CF00CFF3E3E
:100EC600031D5F2F0130F702031D6A2F6B2F462F7C
:100ED6007608F1007508F0000800831603138601F2
:100EE60083120313860183160313880183120313E7
:100EF60088018E018F01901410119011101290121A
:100F06001014203084004030F8000408F9000A303C
:100F1600FA007808840083130008FB00F80A7908B1
:100F260084007B088000F90AFA0B8C2FB4012A3062
:100F360084003630F8000408F9000A30FA00780810
:100F4600840083130008FB00F80A790884007B08F4
:100F56008000F90AFA0BA22FB50100300F021F30EC
:100F660003190E020318B82FB92FB02F3408203EEC
:100F7600840083130008860035082A3E8400000892
:100F860088000A30F0000030F1000F08F3000E0868
:100F9600F2000A128A11F2260A128A117008F80063
:100FA600780883120313B4000A30F0000030F10011
:100FB6000F08F3000E08F2000A128A112C270A12F3
:100FC6008A117008F800780883120313B500B02F51
:100FD6000A128A11002883134A30FD000630FE00EB
:100FE600DE30FF00363084000A128A11CF260A123C
:0A0FF6008A1183010A128A11702F7C
:02400E00F23F7F
:00000001FF
